:020000020000FC
:1000000009C0000000000000000000000000ABC2BA
:10001000000000000FEF0DBF04E00EBFA89500E048
:1000200004BF08E10093600000E1009360000FE36B
:1000300004B90EEF0AB902E207B9419A459A2D9A1E
:100040005A9A5C9A08E10093C10006E00093C2004E
:1000500000E20093C40000E00093C50002E00093BA
:10006000B00002E00093B10007E20093B30002E0A9
:10007000009370007894A1D243504D206F6E2061A0
:100080006E204156522C2076312E300D000095D234
:10009000496E6974696E67206D6D632E2E2E0D009A
:1000A00026D150E060E00BEC27D201E010E0500FC9
:1000B000611FC8F760E050E069D1E0E0F2E060E283
:1000C00050E00191FF93EF9317D2EF91FF9101E080
:1000D00010E0500F611FE038A1F7F23091F700E017
:1000E000802F00E2902F20E068D20D4F6B2C204330
:1000F0005055206973206C697665210D000020E061
:10010000913018F09C3D08F421E0582F692FCDD193
:10011000019610E0EAEAFAE0E00FF11FE00FF11FAC
:100120007591A491072F0F71003059F010E0000F66
:10013000E4E0F6E0E00FF11F05911491E02FF12FBC
:1001400009950A2F0C7F0695003051F0E6EAF7E09A
:1001500010E0E00FF11F05911491E02FF12F0995A8
:100160007295A295072F0E70A0730A2B003051F0E4
:10017000E8EDF6E010E0E00FF11F05911491E02F9B
:10018000F12F0995BCCF103091F01130B1F00895E6
:100190001030A9F01230E1F01031E1F01231E1F04D
:1001A0001431E1F01531E1F01631E1F008951091CC
:1001B000C00000E017FD0FEF089514D20895FDD19F
:1001C00044656275673A2000F3D1F7D10D000895B8
:1001D00010D20895B02E0895C02E0895E02E0895EF
:1001E000D02E08950F935C2D60E01B2D103031F060
:1001F0000AE1500F00E0601F1A95F8CF0F9101300F
:1002000011F0023019F15F936695579566955795F1
:10021000BDD05F91E0E0F2E000E810E050FDE00FBB
:1002200050FDF11F51FDF3956D2D5E2D10E81F93CC
:100230000191FF93EF9360D1EF91FF9101E010E006
:10024000500F611F1F911A9591F708955F936F9357
:10025000669557956695579599D06F915F915F9385
:100260006F93E0E0F2E000E810E050FDE00F50FD99
:10027000F11F51FDF3956D2D5E2D10E81F93FF9337
:10028000EF9313D1EF91FF91019301E010E0500F34
:10029000611F1F911A9591F76F915F916695579520
:1002A000669557959BD008950FEF0EBD0DB507FFCE
:1002B000FDCF0EB50895E0E0F0E0F6DF0F3F21F44A
:1002C0003196FF3F11F0F9CF0895012F71D175D10B
:1002D0003A204572726F723A204D4D432072657319
:1002E000702074696D656F7574210D00A3C003E5FE
:1002F0000CBD5C9A14E1012FD8DF1A95E1F75C98E8
:10030000D3DFD2DFD1DFD0DFCFDFCEDF5C9ACCDF2F
:10031000CBDFCADFC9DF5C980FEFC7DF0FEFC5DFA8
:1003200000E4C3DF00E0C1DF00E0BFDF00E0BDDFCD
:1003300000E0BBDF05E9B9DF0FEFB7DF10E0BBDF9F
:100340005C9AB2DF16E91F935C980FEFAEDF01E411
:10035000ACDF00E0AADF00E0A8DF00E0A6DF00E0FD
:10036000A4DF05E9A2DFA0DF11E0A5DF003041F046
:100370005C9A9ADF1F911A95103029F704E0A5CFF7
:100380001F915C9A91DF00E00CBD089500E50CBD63
:100390005C988ADF01E589DF00E0550F661F001FCA
:1003A00084DF062F82DF052F80DF00E07EDF05E996
:1003B0007CDF0FEF7ADF12E07EDF13E07CDFE0E02E
:1003C000F2E072DF0193E030E1F7F430D1F76CDF57
:1003D0006BDF5C9A69DF00E00CBD089500E50CBDA1
:1003E0005C9862DF08E561DF00E0550F661F001FC3
:1003F0005CDF062F5ADF052F58DF00E056DF05E9E6
:1004000054DF0FEF52DF11E056DF0EEF4EDFE0E07A
:10041000F2E001914ADFE030E1F7F430D1F744DF58
:1004200043DF42DF41DF0F3FE9F75C9A3DDF00E049
:100430000CBD0895F89400E1009360000FE1009373
:100440006000FFCF0F930BB107710BB905B1007EB0
:1004500005B9E0FD2C9AE1FD2B9AE2FD2A9AE3FD15
:10046000299AE4FD289AE5FD5D9AE6FD5E9AE7FD8E
:100470005F9AF0FD5B9A0F910895007F30990160BB
:1004800032990260349904603399086008951F938B
:1004900018B1127E00FD116001FD146002FD1061B3
:1004A00003FD186018B91F910895F894E62FF0E045
:1004B000152F110FEE1FFF1FC5DF2D98F0E0E52F60
:1004C000EF77C0DF00004598000000005A98000058
:1004D000D4DF5A9A0295459AF0E0E52FE068B2DF42
:1004E0000000459800005A9800000000C6DF5A9AA4
:1004F000459A2D9A78940895F89417B11D6117B90B
:10050000C6DFE62FF0E0152F110FEE1FFF1F9ADF59
:10051000000000002D98F0E0E52FE06893DF000078
:100520000000459800000000419800000000000015
:10053000419A459AF0E0E52FEF7784DF0295A7DF37
:10054000459800000000419800000000419A00001A
:100550000000459A2D9A07B1027E07B908B1027EC4
:1005600008B9789408950000000000004598000044
:100570000000000000002D980000000000000000B6
:10058000459A00000000000000002D9A00000000C5
:1005900000000000000018950F930F700A3020F043
:1005A000095C27D00F910895005D23D00F91089525
:1005B0000295F2DF0295F0DF0895FF91EF910F931E
:1005C000EE0FFF1F0591003031F013D00D30D1F741
:1005D0000AE00FD0F7CF3196F695E7950F91EF939C
:1005E000FF9308950091C00007FFFCCF0091C60063
:1005F00008950F930091C00005FFFCCF0F91009369
:10060000C60008951603170319031B031D031F03D8
:100610002103230325032C032F033203350338035F
:100620003D034203470354035A0365030895322DE3
:100630000895332D0895342D0895352D0895362DC0
:100640000895382D0895372D08953B2F422D09D256
:100650003B7F10FF34600895342D432D0895362DCF
:10066000452D0895372D482D0895392D4A2D08958B
:10067000632D542D1ADF302F0895652D562D15DF6B
:10068000302F0895682D572D10DF302F08956A2DD3
:10069000592D0BDF302F6A2D592D01E010E0500F3E
:1006A000611F03DF402F0895582F692FFEDE01964A
:1006B000302F0895582F692FF8DE302F0196582FCC
:1006C000692FF3DE0196402F0895582F692FEDDE34
:1006D000087340E0302F089581038203840386036A
:1006E00088038A038C038E03900397039A039D0368
:1006F000BC03BF03A003A503AA03AF03C203C60341
:10070000CE030895232E0895332E0895432E089581
:10071000532E0895632E0895832E0895732E089501
:10072000242EB32F00E0F02EB2FFF3940895342E60
:10073000432E0895542E632E0895842E732E08950B
:10074000632D542D032FD8DE0895652D562D032FCC
:10075000D3DE0895682D572D032FCEDE08956A2D20
:10076000592D032FC9DE6A2D592D01E010E0500FDD
:10077000611F042FC1DE0895A42E932E0895942F97
:10078000832F089522D1832F942F08953F934F9361
:10079000382F492F09D19F918F910895642F532F9E
:1007A000022DAADE0895FB03FC03080415041A04B5
:1007B0001F0425042B0434043D044D045F046F041E
:1007C00084048F049A04A504AC04B904C404C904C5
:1007D000CC04D104CE04E504D404FF0404050905C7
:1007E0000E05130519051F05240529052D05F60419
:1007F000FD04FE0444050895B17001E0300F0FB709
:10080000F32E01FBB6F937FDB06805FBB4F9089586
:10081000B170B26001E0301B0FB7F32E01FBB6F9E7
:1008200004FBB7F905FBB4F9089501E010E0300FBF
:10083000411F089501E010E0301B410B0895BC7E7C
:10084000330F10F43160B1600895BC7E369510F41A
:100850003068B16008958894B0FD089437950FB75B
:10086000BC7E00FBB0F908958894B0FD0894331F56
:100870000FB7BC7E00FBB0F90895B0E0320D0FB7A2
:1008800001FBB6F904FB303809F4B06805FBB4F994
:1008900003FBB2F900FBB0F908958894B0FD089409
:1008A000321D0FB7B0E001FBB6F937FDB06805FBAC
:1008B000B4F903FBB2F900FBB0F9BD7F0895022D36
:1008C000031B302F0FB701FBB6F904FBB7F905FB8B
:1008D000B4F903FBB2F900FBB0F9B2600895022D40
:1008E0008894B0FD0894030B302F0FB704FBB7F9C1
:1008F00005FBB4F903FBB2F900FBB0F930300FB7D8
:1009000001FBB6F9B2600895B0E032210FB701FBE8
:10091000B6F904FBB7F905FBB4F9032F0895B0E06D
:1009200032290FB701FBB6F904FBB7F905FBB4F99F
:10093000032F0895B0E032250FB701FBB6F904FB91
:10094000B7F905FBB4F9032F0895370D481D0FB70C
:1009500000FBB0F9BD7F0895532F642F072DCCDD28
:1009600001E010E0300F411F532F642F082DC4DD2C
:100970000895532F642F99DD302F01E0500F00E0D0
:10098000601F93DD402F0895532F642F8EDD302F8D
:1009900008957AD0032F0895B160089501E0B0273B
:1009A00008953095B261089501E010E0901AA10A0F
:1009B000592D6A2D042FA0DD01E010E0901AA10A44
:1009C000592D6A2D032F98DD0895592D6A2D6DDD5F
:1009D000302F01E010E0900EA11E592D6A2D65DD2B
:1009E000402F01E010E0900EA11E0895082D842EE6
:1009F000402F072D732E302F089508950895B6FFC8
:100A00000895A0E070E00895B6FD0895A0E070E0BC
:100A10000895B0FF0895A0E070E00895B0FD089536
:100A2000A0E070E008951DD010FF0895A0E070E0F0
:100A3000089517D010FD0895A0E070E00895B7FF65
:100A40000895A0E070E00895B7FD0895A0E070E07B
:100A50000895022D132F9CDB0895132F94DB302F64
:100A6000089511E0F0FC1395F1FC1395F2FC139539
:100A7000F3FC1395F4FC1395F5FC1395F6FC139514
:100A8000F7FC13951170089598DD496E76616C69D5
:100A900064206F70636F646520402050433D000008
:100AA000092F86DD082F84DDFFCF00003201C10150
:100AB000290D4204420851002114009C69412D0077
:100AC00029116304630871002118009C5201E1019F
:100AD0004A0D8404840891002120009C6A412E0064
:100AE0004A11A504A508B100211C009C7201124402
:100AF0006B0DC604C608D1002150009C6B417249A1
:100B00006B11E704E708F1002158009C9201920262
:100B10008C0D0F060F0A11020054009C6C41324CE0
:100B20008C11210421083100005C42004300440084
:100B30004500460047004F0041006200630064002A
:100B40006500660067006F0061008200830084001A
:100B50008500860087008F008100A200A300A4000A
:100B6000A500A600A700AF00A100C200C300C400FA
:100B7000C500C600C700CF00C100E200E300E400EA
:100B8000E500E600E700EF00E100020203020402D4
:100B900005020602070200000102220023002400D1
:100BA0002500260027002F002100222423242424AE
:100BB0002524262427242F242124222823282428DE
:100BC0002528262827282F282128222C232C242CAE
:100BD000252C262C272C2F2C212C2230233024307E
:100BE0002530263027302F3021302234233424344E
:100BF0002534263427342F342134223C233C243C12
:100C0000253C263C273C2F3C213C223823382438E5
:100C10002538263827382F382138022C032C042C6D
:100C2000052C062C072C0F2C012C406A2061B26980
:100C3000B201726A096431247302406E4002B26DDF
:100C4000009C726E72023128730240724061B27170
:100C5000118872720A64312C73024076009CB2755E
:100C6000318C7276009C31307302407A6061B279C7
:100C70003092727A0B6431347302407EAB01B27DE4
:100C80004A91727E009C313C730240820061B281C5
:100C90000094728208643138730240868B01B285F9
:0A0CA00000987286009C112C73026C
:00000001FF
